:020000040800F2
:10000000D04F00209D01000863280008A1020008CD
:1000100061280008790A0008892C00080000000007
:10002000000000000000000000000000AF01000818
:10003000050B000800000000EF010008652800081B
:10004000B7010008B7010008B7010008B7010008B0
:10005000B7010008B7010008B7010008B7010008A0
:10006000B7010008B7010008B7010008B701000890
:10007000B7010008B7010008B7010008B701000880
:10008000B7010008B70100082D090008B7010008F2
:10009000B7010008B7010008B7010008B701000860
:1000A000B7010008B7010008B7010008B701000850
:1000B000B7010008B7010008B7010008B701000840
:1000C000B7010008B7010008B7010008B701000830
:1000D000B7010008652C0008712C00087D2C000871
:1000E000B7010008B7010008B7010008B701000810
:1000F000B7010008B7010008B7010008B701000800
:10010000B7010008B7010008B7010008B7010008EF
:10011000B7010008B7010008B7010008B7010008DF
:100120007D0A0008B7010008B7010008B701000800
:10013000B7010008B7010008B7010008B7010008BF
:10014000B7010008B7010008B7010008B7010008AF
:10015000B7010008B7010008B7010008B70100089F
:10016000B7010008B7010008B7010008B70100088F
:10017000B7010008B7010008B7010008000000003F
:10018000B7010008B7010008DFF80CD000F0B6FB9B
:100190000048004721090008D04F0020064880474A
:1001A00006480047FEE7FEE7FEE7FEE7FEE7FEE75C
:1001B000FEE7FEE7FEE7FEE779290008890100086F
:1001C000EFF3108072B6704780F310887047424A90
:1001D0001368012B04D04FF0010313603F4A1060F5
:1001E0003F4A11603F484FF0805101607047EFF384
:1001F000108272B63848016851B34FF000010160B7
:100200003648016891B1EFF309811EF0100F08BF65
:1002100021ED108B21E9F00F4FF000041EF0100FBC
:1002200008BF012441F8044D006801602C490968A9
:10023000096808C9B1E8F00F002B18BFB1EC108BAA
:1002400081F309884EF0100E002B18BF2EF0100E0F
:1002500082F310884EF0040E704721490860EFF3D6
:10026000148222F0040282F314881C494FF000002B
:10027000086019494FF0010008601B481B49D0F87D
:10028000002041EA0201016016484FF080510160F0
:1002900017480068006880F3088861B662B6704746
:1002A0001EF0040F0CBFEFF30880EFF3098020E984
:1002B000F00F40F804ED40F804ED1EF0040F0CBF01
:1002C00080F3088880F3098800B504F0EDFE5DF83E
:1002D00004EB4EF0040E7047C0000020B800002070
:1002E000BC00002004ED00E020ED00E00000FFFF76
:1002F00008ED00E02DE9F05F0546002092469B46A0
:1003000088460646814640241BE02846414647462B
:10031000224600F0EAF953465A46C01A914110D3DA
:1003200011461846224600F0D1F92D1A67EB010854
:100330004F4622460120002100F0C8F917EB0009C2
:100340004E41201EA4F10104DFDC484631462A4616
:100350004346BDE8F09F40EA01039B0703D009E054
:1003600008C9121F08C0042AFAD203E011F8013BA1
:1003700000F8013B521EF9D27047D2B201E000F8FA
:10038000012B491EFBD270470022F6E710B5134639
:100390000A4604461946FFF7F0FF204610BD421EEC
:1003A00012F8013F002BFBD111F8013B02F8013B91
:1003B000002BF9D1704710B5044604E00B7800F823
:1003C000013B03B1491C521EF8D2204610BD421C0D
:1003D00010F8011B0029FBD1801A704730B5054683
:1003E0000020034600E05B1C934205D2EC5CC85C35
:1003F000201A01D1002CF6D130BD2DE9FE4F8046E8
:1004000081EA0300C00F0C46009021F0004123F068
:100410000045B8EB0200A94105D24046214690466E
:100420001C460B46024623F00040104347D0270DE0
:10043000C7F30A00C3F30A510290401A0190402802
:100440006BDAC3F3130040F4801B0098924620B18E
:100450000023D2EB030A63EB0B0B01985946C0F162
:100460004002504600F032F906460D4650465946C5
:10047000019A00F04AF910EB08006141002487EA74
:10048000115284EAE7731A4340D0009A62B3019A8A
:10049000012A4FEA075215DC001B61EB02014FF005
:1004A000004202EA0752CDE90042001C41F58011EA
:1004B00032462B4600F04AF903B0BDE8F08F4046C3
:1004C0002146F9E7001B61EB0201001C41F5801396
:1004D00000185B412018A2F5001747EB030140EA22
:1004E000D570B6196D4111E06D084FEA360645EA40
:1004F000C0754FEA0752001B61EB0201001C41F579
:10050000801149084FEA30000019514132462B460C
:1005100003B0BDE8F04F00F00AB900980122400096
:100520000023D0EB020263EBE073009821464FEA10
:10053000E074B8EB000061EB0401E9E783F00043ED
:100540005BE781F0004158E72DE9F04D81EA0304B3
:1005500004F0004B21F0004514464FF0000A23F050
:10056000004150EA050220D054EA01021DD0C5F333
:100570000A570246C5F31303C1F31300C1F30A5629
:1005800040F4801543F48013A7EB0608101BD646F1
:1005900008F2FD3873EB050002D308F1010801E011
:1005A00092185B41B8F1000F03DA00200146BDE864
:1005B000F08D00204FF48011064684460EE0171B94
:1005C00073EB050705D3121B63EB050306434CEAE7
:1005D000010C49084FEA300092185B4150EA0107CC
:1005E000EDD152EA030012D082EA040083EA050149
:1005F000084305D0101BAB4106D20122002306E0C0
:1006000000224FF0004302E06FF0010253101AEB9A
:1006100006004CEB085110EB0A0041EB0B01BDE862
:10062000F04D00F084B80EB540F233410291002144
:10063000CDE900110A460B4600F088F803B000BD72
:1006400030B5041E71F1000404DB4FF00044404259
:1006500064EB0101141E73F1000405DB1C464FF02E
:100660000043524263EB04038B4208BF824230BD19
:1006700030B5041E71F1000404DB4FF00044404229
:1006800064EB0101141E73F1000405DB1C464FF0FE
:100690000043524263EB0403994208BF904230BDCD
:1006A00030B50B46014600202022012409E021FA42
:1006B00002F59D4205D303FA02F5491B04FA02F53F
:1006C0002844151EA2F10102F1DC30BD202A04DB12
:1006D000203A00FA02F1002070479140C2F1200355
:1006E00020FA03F3194390407047202A04DB203A94
:1006F00021FA02F00021704721FA02F3D040C2F142
:1007000020029140084319467047202A06DBCB1788
:10071000203A41FA02F043EAE07306E041FA02F3BC
:10072000D040C2F12002914008431946704710B5ED
:10073000141E73F1000408DA401C41F10001921804
:100740005B411A4301D120F0010010BD2DE9F04DAD
:1007500092469B4611B1B1FA81F202E0B0FA80F202
:1007600020329046FFF7B2FF04460F4640EA0A00E7
:1007700041EA0B0153465A46084313D0114653EA47
:10078000010019D0C8F140025046FFF7AEFF054600
:100790000E46504659464246FFF798FF084305D09B
:1007A000012004E020463946BDE8F08D00200543D5
:1007B00046EAE0762C4337430A986305E40AA0EB47
:1007C00008000022FD0A44EA47540A3002D50020FE
:1007D0000146E9E7010510196941DDE908450019FD
:1007E0006941BDE8F04DA2E72DE9FE4F81EA03041F
:1007F00004F0004421F0004100944FF0000B23F07E
:10080000004350EA01045ED052EA03045BD0C3F314
:100810000A54C1F30A552C44A4F2F3340194A0FB0A
:100820000254C1F3130141F48011C3F3130343F4E1
:10083000801301FB024400FB034E840A970A44EA3A
:10084000815447EA8357A4FB076802958D0A05FB8C
:1008500007854FEA932C04FB0C542705029D4FEAB1
:10086000065847EA1637B5EB08056EEB070C870EFE
:10087000920E47EA811742EA8312A7FB0201B6EB08
:100880000B0164EB00042B0D43EA0C335E1844EBC0
:100890001C50DA465146E7FB0201C5F313044FEA48
:1008A0000B3343EA14534FEA0432019C43EA060334
:1008B000A4F10C040294009CCDE900B4FFF746FFBC
:1008C00003B0BDE8F08F00200146F9E7C1F30A52FA
:1008D000C1F3130140F2FF3341F480119A4202DA6E
:1008E00000200146704740F233439A42A2F233425D
:1008F00002DC5242FFF7F9BEFFF7E8BE064C074D97
:1009000006E0E06840F0010394E8070098471034DF
:10091000AC42F6D3FFF73CFCDC6A0008FC6A000836
:1009200010B505F0A5FD002010BD000010B505486C
:1009300000F079FA044800F076FABDE81040034868
:1009400000F071BA240900206C090020B4090020CD
:10095000464910B54A6822F440324A604A68436802
:100960001A434A6001684A6822F480724A6001684A
:100970004A68036942EA03224A6001684A6822F031
:1009800040724A6001684A6883681A434A60016895
:100990008A6822F400628A6001688A68C3681A4320
:1009A0008A60816A6FF07062D14201688A6822F0C1
:1009B00070628A6001688A680CD0836A1A438A6010
:1009C00001688A6822F040528A6001688A68C36AB6
:1009D0001A4301E022F040528A6001688A6822F0DE
:1009E00002028A6001688A68037E42EA43028A60E2
:1009F00090F82010002901684A680FD042F4006284
:100A00004A6001684A6822F460424A6001684A68A4
:100A1000174C436A04EB43331A4301E022F40062AB
:100A20004A600168CA6A22F47002CA620168CA6A2E
:100A3000838B104C04EB03531A43CA6201688A6823
:100A400022F400728A6001688A6890F8303042EAC5
:100A500043228A6001688A6822F480628A600168A1
:100A60008A68406942EA8020886010BD0023014006
:100A700000E0FFFF0000F0FFFEE70000014800F08B
:100A800055BC0000FC09002001681823CAB2103AC6
:100A9000B2FBF3F2054B6FF30901032A9B5CC365BC
:100AA00000D9091D8165084670470000A26600084C
:100AB00010B5014600208B698A6A4FF0C07453B1AB
:100AC000B3F5005F15D072B1012A0CD0022A0AD00A
:100AD000032A09D104E01AB1012A06D0022A03D15F
:100AE000C96AC90100D5012010BDC96AA142FAD066
:100AF00010BD002AF7D0012AF2D0022AF3D0032A2F
:100B0000F3D010BD7047000070B50C4D2021284671
:100B100000F03EFE0A4C60B12021284600F038FE6D
:100B200001280AD10020206006A0BDE8704002F034
:100B3000A1BA0120206008A0F7E770BD00100240B4
:100B40001C000020BBF0D1E6B4ABB8D0C6F73A2009
:100B5000D7C5BBF0C1CB0A00BBF0D1E6B4ABB8D06F
:100B6000C6F73A20D5FDB3A30D0A000010B5214801
:100B700000F002FB32211F4800F0A8FA1D4800F0E7
:100B80004DF91D4C800534D51A4800F049F980B262
:100B9000FFF749FD9FED191B53EC112BFFF7D4FC18
:100BA0009FED181B53EC112BFFF7CBFC41EC100B06
:100BB00016A084ED020B53EC102B02F05BFA9FEDB4
:100BC000190B53EC102B94ED020B51EC100BFFF7AB
:100BD0004FFD0AD39FED150B53EC102B94ED020B38
:100BE00051EC100BFFF72CFD01D2002000E001209A
:100BF000206010BDB409002030000020000000007B
:100C0000008040400000000000005940B6C1C8A16B
:100C1000B5C4B9E2C1C1B6C8CEAA3A20252E326603
:100C20000D0A000000000000008056400000000097
:100C300000003E4010B5194800F09EFA32211748D6
:100C400000F044FA154800F0E9F8154C800523D56A
:100C5000124800F0E5F880B2FFF7E5FC9FED111BAC
:100C600053EC112BFFF770FC41EC100B0FA084ED3F
:100C7000020B53EC102B02F0FDF99FED110B53EC1E
:100C8000102B94ED020B51EC100BFFF7F1FC01D28D
:100C9000002000E00120206010BD00002409002099
:100CA000200000200000000000804040D1CCCEEDAC
:100CB000C5A8B6C8CEAA3A20252E32660D0A000075
:100CC00000000000000034407047704778B50024F1
:100CD000009490F83C20012A19D0012280F83C2091
:100CE0000A6807230568092A13D9EE680A3A02EB55
:100CF000420293409E43EE600B788A680A3B03EB06
:100D000043039A400368DD682A43DA6010E002205A
:100D100078BD2E6902EB420293409E432E610B7810
:100D20008A6803EB43039A4003681D692A431A61EA
:100D30004A681F23072A13D205686E6B521E02EB06
:100D4000820293409E436E630B790A885B1E92B2C7
:100D500003EB83039A4003685D6B2A435A6327E0E1
:100D600005680D2A12D22E6BD21F02EB820293402D
:100D70009E432E630B790A88DB1F92B203EB830339
:100D80009A4003681D6B2A431A6311E0EE6A0D3A1C
:100D900002EB820293409E43EE620B790A880D3B80
:100DA00092B203EB83039A400368DD6A2A43DA6256
:100DB000164B0568144A9D4206D10D68122D03D1C9
:100DC000556845F48005556005689D4218D10B684B
:100DD000102B01D0112B13D1536843F4000353603F
:100DE000096810290CD10A490A4A0968B1FBF2F1D5
:100DF00001EB8101490000E0491E00910029FBD16F
:100E000080F83C40002078BD0023014000200140D4
:100E10001800002040420F0070477047006C704778
:100E20000068C06C704770B504460068016842688D
:100E3000C1F34001C2F3401251B34AB3216CC90659
:100E400003D4216C41F400712164816811F0405F8A
:100E500017D1217EA9B9C16A11F4700F02D081683F
:100E600049050ED4416821F020014160206C20F436
:100E700080702064206CC00403D4206C40F001001A
:100E800020642046FFF7C8FF21686FF01200086059
:100E9000206801684268C1F38001C2F3C01289B3BF
:100EA00082B3216CC90603D4216C41F40051216442
:100EB000816811F4401F1ED1816B11F4401F02D0D4
:100EC0008168490517D44168490514D4816811F037
:100ED000405F10D1217E71B9416821F080014160ED
:100EE000206C20F480502064206CC00503D4206C5A
:100EF00040F0010020642046FFF7E7FE21686FF014
:100F00000C00086020680168426811F0010FC2F30C
:100F100080120ED06AB10068C0070AD0206C40F47D
:100F200080302064204600F046F821686FF0010010
:100F30000860206801684268C1F34011C2F3806212
:100F400000290DD0002A0BD0616C41F002016164D0
:100F50006FF0200505602046FFF75FFF2068056001
:100F600070BD70B504004FF0000503D0206C002662
:100F700010B107E0012070BD204600F01DF8666446
:100F800084F83C60206CC00610D4206C20F488509B
:100F900040F0020020642046FFF7DAFC6664206C13
:100FA00020F0020040F00100206400E0012584F8F8
:100FB0003C60284670BD7047F0B587B006461421E6
:100FC0006846FFF7E1F93A49384F34680025384858
:100FD00014390322374BBC4211D1046844F48074A5
:100FE0000460006800F480700590086840F001001B
:100FF0000860086800F001000590402013E02E4FC3
:10100000BC4220D1046844F400740460006800F419
:1010100000700590086840F001000860086800F062
:101020000100059020208DE825006946184600F053
:10103000B7FA00221146122000F022FC122000F024
:1010400011FC07B0F0BD1D4B9C42FAD1036843F47C
:1010500080630360006800F480600590086840F0D9
:10106000200008600868694600F020000590802094
:101070008DE82500124800F093FA134C11482060C7
:101080008005C4E90105C013E560C4E9045080008F
:10109000A0614011C4E907052046656200F016FA18
:1010A00008B1FFF711FEB463A663C2E70020014058
:1010B000443802400000024000210140002201406B
:1010C0000014024010640240FC0900202DE9F041A8
:1010D000044600680D4681684FF0000749050BD5AE
:1010E0008068C00508D5206C40F02000206484F89A
:1010F0003C700120BDE8F08100F05CFB064613E087
:10110000681C11D025B100F055FB801BA8420BD9FB
:1011100020680068800707D4206C40F00400206439
:1011200084F83C700320E5E7206800688007E7D575
:1011300021686FF012000860206C40F40070206499
:101140002068816811F0405F13D1217E89B9C16A9E
:1011500011F4700F02D0806840050AD4206C20F48E
:1011600080702064206CC00403D4206C40F0010027
:1011700020640020BEE7000018B50021009190F81F
:101180003C20012A07D0012280F83C2002689368A5
:10119000DB0702D011E0022018BD936843F0010381
:1011A00093602E4A2E4B1268B2FBF3F202EB42021E
:1011B00000E0521E0092002AFBD102689368DB0710
:1011C00042D0036C40F20164A34343F48073036490
:1011D00053685B0505D5036C23F4005343F4805337
:1011E0000364036CDB0404D5436C23F006034364FF
:1011F00000E0416480F83C101A496FF0220313604C
:1012000049680068CA06184906D0884224D1816816
:1012100011F0405F13D01FE08842F8D0134A90428B
:1012200003D1D1F80423D206F1D0114A904213D150
:10123000D1F8041301F01F011029E8D30CE08168F4
:1012400041F08041816007E0016C41F010010164D0
:10125000416C41F001014164002018BD18000020DC
:1012600040420F00002301400020014000210140C6
:10127000002201402DE9F0410446876D00F09AFA02
:10128000064694F835000025022806D080206065C7
:1012900084F834500120BDE8F0812068016821F015
:1012A000160101602068416921F080014161206CD4
:1012B00008B9A06C20B12068016821F00801016024
:1012C0002068016821F0010101600CE000F072FA71
:1012D000801B052807D920206065032084F835008D
:1012E00084F83450D7E720680068C007EED194F83E
:1012F0005C103F208840B860012084F8350084F8F5
:1013000034500020C7E790F83510022903D080211F
:10131000416501207047052180F83510006801689B
:1013200021F0010101600020704700002DE9F84321
:1013300004464FF00009CDF8009063484FF4165171
:10134000A56D0068B0FBF1F72E6894F85C100820DA
:1013500000FA01F131420FD021680A6852070BD51B
:101360000A6822F004020A6094F85C108840A860C1
:10137000606D40F00100606594F85C104FF001086A
:1013800008FA01F0304208D021684969090604D5FD
:10139000A860606D40F00200606594F85C10042065
:1013A0008840304208D021680968890704D5A860C0
:1013B000606D40F00400606594F85C101020884077
:1013C000304218D021680968090714D5A860206840
:1013D0000168490304D50068000308D5A16C07E043
:1013E0000168C90503D4016821F008010160216C7E
:1013F00009B12046884794F85C102020884030428C
:1014000031D021680968C9062DD5A86094F8350047
:1014100005282068016806D0490347D50068000305
:101420001DD4616C1CE021F0160101602068416947
:1014300021F080014161206C08B9A06C20B12068C6
:10144000016821F00801016094F85C103F20884099
:10145000A86084F8358084F83490216D1FE0E16B3A
:1014600009B120468847606D00282BD0606DC00709
:1014700014D0052084F835002068016821F00101AE
:1014800001600098401C0090B84203D820680068B2
:10149000C007F6D184F8358084F83490E16C0029D7
:1014A00010D001B02046BDE8F04308470168C905E7
:1014B000D5D4016821F01001016084F8358084F8EA
:1014C0003490CCE7BDE8F883180000202DE9F04106
:1014D000044600F06FF906465CB1022084F835003E
:1014E000002584F834502068016821F00101016072
:1014F0000DE00120BDE8F08100F05CF9801B0528BB
:1015000005D920206065032084F83500F2E72068C3
:101510000068C007F0D12268116820480140D4E972
:1015200001031843D4E9033633431843636918436E
:10153000A3691843E3691843236A18430843616A9F
:10154000042903D1D4E90B13194308431060206820
:101550004069666A20F0070130460E4301270428DF
:101560000CD1A06A0643E06A40B12046FFF7A0FA1A
:1015700020B14020606584F83570BAE72068466184
:101580002046FFF781FA94F85C203F21914081606A
:10159000656584F835700020ACE700003F8010F0EE
:1015A0002DE9F84FDFF8BCA1002201250AF1040B58
:1015B00003264FF00F090BF1040E00BF0B6805FA6C
:1015C00002F42340A34270D10F7907F00307012FE3
:1015D00001D0022F16D187684FEA420806FA08FCAC
:1015E00027EA0C07D1F80CC00CFA08FC4CEA070CEF
:1015F000C0F808C04768A7430C79C4F300149440AE
:101600003C4344600C79E443A4070AD0C4684FEA21
:10161000420C06FA0CF7BC438F6807FA0CF7274315
:10162000C7600C7904F00304022C12D1D40800EB3B
:10163000840CDCF820405707FF0E09FA07F824EA6B
:101640000804D1F8108008FA07F848EA0408CCF832
:10165000208004684FEA420C06FA0CF7BC430F796D
:1016600007F0030707FA0CF7274307604C6814F4E8
:10167000403F70D03C4C276847F48047276024687F
:1016800022F0030704F480440094384C07EB040C68
:10169000DCF8084897074FEA177809FA08F7BC43BF
:1016A000334FB84202D1002724E054E0314FB84212
:1016B00001D101271EE0304FB84201D1022719E0C5
:1016C0002E4FB84201D1032714E02D4FB84201D16B
:1016D00004270FE02B4FB84201D105270AE02A4F1B
:1016E000B84201D1062705E0284FB84201D10727AB
:1016F00000E0082707FA08F72743CCF80878DAF85B
:1017000000405746D1F804C09C435FEACC3C00D56A
:101710001C433C60DBF800405F46D1F804C09C43AA
:101720005FEA8C3C00D51C433C60DEF80040774605
:10173000D1F804C09C435FEACC2C00D51C433C602C
:10174000084F0C373C68D1F804C09C435FEA8C2CEE
:1017500000D51C433C60521C102AFFF42FAFBDE89B
:10176000F88F0000003C0140443802400030014046
:10177000000002400004024000080240000C024049
:10178000001002400014024000180240001C0240F9
:101790000069084000D001207047426921EA020335
:1017A0000A4043EA0241816170470AB18161704792
:1017B0000904FBE701488068704700000C00002026
:1017C0000B4810B5016841F400710160016841F4F3
:1017D00080610160016841F480710160032000F0C4
:1017E0006FF8002000F006F800F024F8002010BD8B
:1017F000003C024070B50D4D04464FF47A712878D4
:10180000B1FBF0F00A490968B1FBF0F000F010FB01
:1018100048B9102C07D200222146501E00F030F8A3
:1018200000206C6070BD012070BD00000C00002025
:10183000180000200A4808B5016841F480410160A1
:10184000006800F4804000900548001F016841F0E6
:1018500080510160006800F08050009008BD0000D9
:1018600044380240002809DB00F01F0201219140AA
:101870004009800000F1E020C0F80011704700002E
:10188000F0B40E4B1B680C46C3F30223C3F10705EB
:10189000042D00D90425191D072901D2002300E0D9
:1018A000DB1E012606FA05F1491E214099409E40A3
:1018B000761E16403143F0BC01F0ECBB0CED00E0AD
:1018C000064900F0070208684FF6FF03184040EA97
:1018D0000220034A10430860704700000CED00E04E
:1018E0000000FA052DE9F0470E46050065D0DFF847
:1018F0001481D8F80000F7B200F00700B04207D218
:1019000088F80070D8F8000000F00700B04254D109
:1019100028683D4C810712D5400703D5206840F464
:10192000E05020602878000703D5206840F460402C
:1019300020602068A96820F0F00008432060287823
:10194000C0072DD0304968680839012812D0022814
:1019500013D0032811D00968890700292DDA2168DE
:1019600021F0030101432160FFF724FF814641F28A
:10197000883A0EE009688903EFE709688901ECE716
:10198000FFF718FFA0EB0901514502D90320BDE87C
:10199000F0872068696800F00C00B0EB810FEFD190
:1019A000D8F80010404601F00701B14207D907708E
:1019B000006800F00700B04201D00120E7E7287876
:1019C000400705D52068E96820F4E050084320600E
:1019D0002878000706D52068296920F4604040EA8D
:1019E000C100206000F03EF82168084AC1F30311ED
:1019F000515CC8400649086006480068FFF7FAFED7
:101A00000020C4E7003C024008380240AA660008F3
:101A100018000020100000200148006870470000F6
:101A2000180000200448054900680968044AC1F309
:101A30008221515CC84070471800002008380240DD
:101A4000BA6600080448054900680968044AC1F3F9
:101A50004231515CC84070471800002008380240ED
:101A6000BA660008154810B5006810F00C0214485A
:101A700013D04110042A0FD0082A0ED10F4C241F76
:101A80002268236802F03F025B0207D52068C0F39A
:101A90008810A0FB010106E0084610BD2168C1F3D3
:101AA0008811A1FB00010023FEF724FC2168C1F38B
:101AB0000141491C4900B0FBF1F010BD083802405B
:101AC0000024F4002DE9F84F04006ED02078DFF8F0
:101AD0004C93C007A9F104054AD009F1040001683C
:101AE000C1F38101012908D00068C0F381000228F8
:101AF0000AD1D9F80000400206D52868800337D5FE
:101B000060680028E1D033E06068B0F5803F10D015
:101B1000B0F5A02F286810D020F480302860286805
:101B200020F4802028606068A8B1FFF743FE0646D5
:101B30000DE0286840F48030F4E740F4802028600D
:101B4000F7E700BFFFF736FE801B642873D82868CC
:101B50008003F7D50CE0FFF72DFE064605E000BF39
:101B6000FFF728FE801B6428F0D828688003F7D48C
:101B70002078DFF8AC8280074FF0000A3ED5A748F6
:101B8000001D016811F00C0F08D00068C0F381003F
:101B900002280BD1D9F80000400207D4286880073A
:101BA00016D5E068012800D112E033E1E068B8B151
:101BB0000120C8F80000FFF7FDFD064605E000BF64
:101BC000FFF7F8FD801B0228C0D828688007F7D5EA
:101BD0002868216920F0F80040EAC10028600DE083
:101BE000C8F800A0FFF7E6FD064604E0FFF7E2FDB7
:101BF000801B02281FD828688007F7D420780007A8
:101C000022D5864F87486169703771B10121016023
:101C1000FFF7D0FD064604E0FFF7CCFD801B02284D
:101C200009D838688007F7D50EE0C0F800A0FFF7A4
:101C3000C1FD064605E082E0FFF7BCFD801B0228DF
:101C40007DD838688007F7D42078400768D5DFF85A
:101C5000CCB100270BF13C0BDBF80000C0000BD42B
:101C6000DBF8001041F08051CBF80010DBF80000E9
:101C7000012700F0805000906B4E3068C00510D4F2
:101C8000306840F480703060FFF794FD009005E00C
:101C9000FFF790FD0099401A022850D83068C0051F
:101CA000F6D55E4EA0686C3601280FD00528306846
:101CB00010D020F001003060306820F00400306067
:101CC000A068B8B1FFF776FD00900FE0306840F0F3
:101CD0000100F4E740F004003060F7E7FFF76AFD29
:101CE0000099411A41F28830814266D830688007F5
:101CF000F4D50EE0FFF75EFD009007E0FFF75AFD18
:101D00000099411A41F28830814256D830688007E4
:101D1000F4D42FB1DBF8001021F08051CBF8001083
:101D2000A069C8B33D49091D0968C1F381010229B1
:101D30004AD00228504607D0C8F8600000E03CE0D6
:101D4000FFF738FD04463BE04746C8F86000FFF760
:101D500031FD064605E000BFFFF72CFD801B022881
:101D60002BD828688001F7D4D4E907010843A16A79
:101D70002E4A490802EB0141626A41EA8211084396
:101D800094F82C1040EA0161C9F80010012038666F
:101D9000FFF710FD044606E03EE000BFFFF70AFD36
:101DA000001B022809D828688001F7D534E000BF5D
:101DB000FFF700FD001B022802D90320BDE8F88FC1
:101DC00028688001F4D427E00128F7D0D9F8000072
:101DD000E26900F4800191421CD1226A00F03F01C7
:101DE000914217D147F6C071626A0140B1EB821F80
:101DF00010D1A26A4FF0FF3300F4403103EB5202DE
:101E0000B1EB024F06D194F82C1000F07060B0EBEB
:101E1000016F01D00120D1E70020CFE70438024054
:101E200000004742800E4742007000400000FFFF64
:101E300010B5401EB0F1807F01D3012010BD4FF0DE
:101E4000E02460610F21601701F024F90020A061F7
:101E500007202061002010BD70477047F8B5016869
:101E600004460868CA684B6910F00F0F4FF0000570
:101E700059D003F0010602F49077374365D0C107CB
:101E800005D0D10503D5216C41F001012164410742
:101E900005D5D90703D0216C41F0020121648107E7
:101EA00005D5D90703D0216C41F004012164010755
:101EB00007D502F02001314303D0216C41F0080125
:101EC0002164216C00293AD0800604D5900602D501
:101ED000204600F088FD20684069216CC0F3801026
:101EE000090700D460B3204600F056FD2068406921
:101EF000400621D52068143050E8001F21F0400131
:101F000040E80012002AF5D1A06BA8B16C49016528
:101F1000A06BFFF7F8F9002811D0A06B016D01B09C
:101F2000BDE8F040084783060FD593060DD520463F
:101F3000BDE8F84000F057BD2046FFF78EFFF8BD22
:101F40002046FFF78AFF2564F8BD266B2023012E6B
:101F500079D1C60677D5D60675D508684868009049
:101F60004869400640D5A16B086840680004000C31
:101F7000EAD0A28D8242E7D9E085C869B0F5807FBA
:101F80002DD020680C3050E8001F21F4807140E80B
:101F90000012002AF5D12068143050E8001F21F00B
:101FA000010140E80012002AF5D12068143050E801
:101FB000001F21F0400140E80012002AF5D184F80A
:101FC0003E30256320680C3050E8001F21F01001DE
:101FD00040E80012002AF5D1A06BFFF74BF9A08D65
:101FE000E18D401A81B229E0A08DE18D401A81B2C5
:101FF000E08D0028A8D00029A6D020680C3050E839
:10200000002F22F4907240E80026002EF5D12068BF
:10201000143050E8002F22F0010240E80026002E84
:10202000F5D184F83E30256320680C3050E8002F4D
:1020300022F0100240E80023002BF5D12046FFF7E4
:102040000BFFF8BDFFE705062BD5150629D594F83B
:102050003D002128F5D1A068B0F5805F01D120694D
:10206000B0B1206A411C2162216800784860E08C90
:10207000401E0004000CE084E3D12068C16821F018
:102080008001C1602068C16841F04001C160D8E7AB
:10209000206A0088C0F308004860206A801C206223
:1020A000E5E74006CDD55006CBD5CA68204622F0DC
:1020B0004002CA6084F83D3000F0CFF9C1E700006B
:1020C0008929000870B5040004D094F83D0000256B
:1020D00010B106E0012070BD84F83C50204600F0AD
:1020E00023F8242084F83D002068C16821F40051C1
:1020F000C160204600F0D8FC2068016921F49041BD
:1021000001612068416921F02A0141612068C168AC
:1021100041F40051C1602564202084F83D0084F81A
:102120003E00002070BD0000F0B587B004461421C9
:102130006846FEF729F93D4B276800223C490224F6
:10214000032507263B489F4221D1394B14331F6892
:1021500047F010071F601B6803F0100305930B681E
:1021600043F001030B60096802AB01F00101059126
:102170006902CDE9001483E864006946FFF710FAAC
:10218000002211462520FFF77BFB252024E0284B69
:10219000DFF8A4C01033674522D11F6847F4003729
:1021A0001F601B6803F4003305930B6843F00103C1
:1021B0000B60096802AF01F0010105910C21CDE926
:1021C000001487E864006946FFF7EAF90022114627
:1021D0002620FFF755FB2620FFF744FB07B0F0BD94
:1021E00016488742FAD1186840F4802018601868B1
:1021F00000F480200590086840F00200086008683C
:1022000002AF00F0020005904FF44060CDE90004F9
:1022100087E8640069460A48FFF7C2F900221146C0
:102220002720FFF72DFB2720D6E7000000100140F4
:1022300030380240000002400044004000480040A6
:102240000004024090F83E30202B0ED159B152B11B
:1022500090F83C30012B08D0012380F83C3000235B
:10226000036300F0A7BC0120704702207047000004
:1022700070B5454C434900252278884225D1434911
:1022800060880A54401C80B26080084410F8021C28
:102290000D2916D110F8010C0A2812D13B48FEF77F
:1022A00096F882B24FF6FF733849394800F07CF84F
:1022B0006580364937A000F0DDFE64213348FEF723
:1022C00063F8012230492F4856E03349884230D123
:1022D0002E48A18864304254491C89B2A1806329E8
:1022E00006D92A48A58064216430FEF74DF808E03D
:1022F000014411F8022C0D2A03D111F8011C0A29FE
:1023000003D001222049244836E020498278C83190
:102310000A230A70C2784A700D228A70CB700A3183
:1023200086790E70C07948708A70CB700120A060E9
:10233000D7E71749884223D1194C184920880A54F5
:10234000401C82B28818228010F8023C0D2B10D15C
:1023500010F8010C0A280CD10020124B02E00E5C90
:102360001E54401C9042FADB64210C48FEF70CF826
:102370002580054906480122BDE87040FFF762BF8D
:1023800070BD00005C0A002000000020E00000207A
:10239000E40A002025730000A00A0020280B00207A
:1023A000400000208C0B00202DE9F843044690F8F3
:1023B0003D001F4616460D4620284CD1C5B1BEB182
:1023C00094F83C00012846D0012084F83C004FF0EE
:1023D0000008C4F84080212084F83D00FFF7EAF9A6
:1023E000A6848146E684A068B0F5805F03D004E04F
:1023F0000120BDE8F883206928B12E465FF0000572
:1024000084F83C800EE00026FAE78021204600F0A8
:10241000ECFBA0B9AEB116F8010B21684860E08C66
:10242000401EE084E08C4B464FF0000200970028ED
:10243000EBD14FF04001204600F0D7FB30B1032034
:10244000D7E735F8020BC0F30800E6E7202084F850
:102450003D000020CDE70220CBE7704710B50C4CC3
:10246000012251022046FFF7A0F9012291022046E5
:10247000FFF79BF9074C012251032046FFF795F91E
:1024800020460122BDE810409103FFF78EB90000FD
:10249000001402400010024010B50B4C4FF40071C4
:1024A0002046FFF77AF921152046FFF776F9074C09
:1024B0004FF400512046FFF770F92046BDE8104068
:1024C0004FF48041FFF769B9001402400010024048
:1024D0007FB5002415480094019402941249039496
:1024E00001604FF48031C0E901140461047680F882
:1024F00020400F49C0E90A140125C561C46080F875
:1025000030404561FEF72DFD08B1FEF7DDFB0620EA
:10251000CDE90005694602940448FEF7D7FB002880
:1025200001D0FEF7D1FB7FBD00200140240900202F
:102530000100000F7FB50024154800940194029417
:102540001249039401604FF48031C0E90114046121
:10255000047680F820400F49C0E90A140125C561BE
:10256000C46080F830404561FEF7FBFC08B1FEF71F
:10257000ABFB0520CDE90005694602940448FEF74F
:10258000A5FB002801D0FEF79FFB7FBD0021014085
:102590006C0900200100000F7FB50024154800944D
:1025A000019402941249039401604FF48031C0E910
:1025B00001140461047680F820400F49C0E90A1430
:1025C0000125C561C46080F830404561FEF7C9FC53
:1025D00008B1FEF779FB0520CDE9000569460294B4
:1025E0000448FEF773FB002801D0FEF76DFB7FBDAA
:1025F00000220140B40900200100000F094808B57D
:10260000016841F4800101600068002200F480004C
:10261000009011463820FFF733F9BDE80840382014
:10262000FFF720B9303802402DE9F04186B014217F
:102630006846FDF7A9FE33480024016841F0100107
:102640000160016801F010010591016841F0040189
:102650000160016801F004010591016841F0200169
:102660000160016801F020010591016841F08001DD
:102670000160016801F080010591016841F00101EC
:102680000160016801F001010591016841F002015A
:10269000016000681C4F00F002004FF4E0650590F7
:1026A000002229463846FFF780F8DFF860804FF4B3
:1026B000C046002231464046FFF777F82020CDE99A
:1026C0000004694640460294FEF76AFF0095012522
:1026D000CDE90154694638460394FEF761FF009640
:1026E000CDE90154694640460394FEF759FF402066
:1026F000CDE90004694606480294FEF751FF06B092
:10270000BDE8F08130380240001402400010024061
:10271000000402407FB5022004023C251949CDE99E
:102720000014CDE902050023174A18A1194803F047
:102730006FFA0320CDE902051749CDE900141548C9
:102740000023164A16A1783003F062FA0420CDE97E
:1027500002051549CDE900140A480023134A14A1C3
:10276000783803F055FA0B4803F0BEFA0948783080
:1027700003F0BAFA04B00348BDE87040783803F0BB
:10278000B3BA00002403002005650008736D6F6B69
:1027900065000000BC01002024050020D53F000892
:1027A00066697265000000002407002001410008EE
:1027B0006C696768740000000C4810B50A49016034
:1027C0004FF4E1314160002181600C22C160C0E919
:1027D00004128161C161FFF775FC002803D0BDE8D8
:1027E0001040FEF771BA10BD001001405C0A0020D5
:1027F0000C4810B50A4901604FF4E13141600021F5
:1028000081600C22C160C0E904128161C161FFF7DF
:1028100059FC002803D0BDE81040FEF755BA10BDA2
:1028200000440040A00A00200C4810B50A4901608D
:102830004FF4E1314160002181600C22C160C0E9A8
:1028400004128161C161FFF73DFC002803D0BDE89F
:102850001040FEF739BA10BD00480040E40A0020DD
:10286000FEE7FEE710B502F051FD03F0DFFABDE828
:10287000104002F059BD000030B593B030216846D9
:10288000FDF782FD14210CA8FDF77EFD1A480025F6
:10289000016841F080510160006800F080501190A3
:1028A0001648016841F4804101600068022400F488
:1028B0008040119001200090000401908001CDE93A
:1028C0000640082008904FF4A870CDE909040420C0
:1028D0000B906846FFF7F6F80CA90F2081E831004D
:1028E0004FF4A0500F90E002109005210CA8FEF7C5
:1028F000F9FF13B030BD00004038024000700040C6
:1029000070B5194C2068194A10F00C01184804D011
:102910005510042903D0082903D002601BE005608C
:1029200019E01149091F0B68C3F380560B6803F0C7
:102930003F0316B1B5FBF3F201E0B2FBF3F20B6813
:102940000968C3F388135A43C1F30141491C490084
:10295000B2FBF1F101602168064AC1F30311515C39
:102960000268CA40026070BD083802400024F400CA
:1029700018000020AA6600080248016841F47001AE
:102980000160704788ED00E010B5806B0021C185C3
:10299000C184FFF762FA10BD01680C3151E8002FC5
:1029A00022F4907241E80023002BF5D10168143124
:1029B00051E8002F22F0010241E80023002BF5D15D
:1029C000016B012909D101680C3151E8002F22F077
:1029D000100241E80023002BF5D1202180F83E10A1
:1029E00000210163704708B590F83E10222901D0FC
:1029F000022008BD82684FF480539A4201D10169D8
:102A000021B1816A9A421BD04AB10AE00268816A08
:102A10005268C2F308020A80816A891C08E00269D0
:102A200072B10268526802F07F020A70816A491C22
:102A30008162C18D491E0904090CC18503D019E0CA
:102A400002685268F1E70168CA6822F02002CA6091
:102A50000168CA6822F48072CA6001684A6922F07B
:102A600001024A61202180F83E10016B012903D048
:102A7000FFF7FEFB002008BD0021016301680C3157
:102A800051E8002F22F0100241E80023002BF5D17D
:102A900001680A68D20602D50A6849680091818DEA
:102AA000FFF7DAF9E6E7000070B50446006801694F
:102AB000E26821F44051114301612169A068E26993
:102AC00008436169114308432168CA6849F20C63ED
:102AD0009A430243CA6020684169A26921F44071A7
:102AE0001143416131492068884202D0304988420F
:102AF00002D1FEF7A7FF01E0FEF794FFE269002391
:102B0000192164253226B2F5004F626828D0A0FB57
:102B10000101930F9200FDF7EDFB0146B0FBF5F0CC
:102B20006FF01802504301EB800006EB0010B0FB81
:102B3000F5F000F0F002B1FBF5F002EB0012B1FB92
:102B4000F5F06FF01803584301EB800006EB00101E
:102B5000B0FBF5F000F00F0021681044886070BDF4
:102B6000A0FB010192185B41FDF7C4FB0146B0FBDD
:102B7000F5F00201B1FBF5F06FF01803584301EBDB
:102B8000800006EBC000B0FBF5F000F0F80002EBAF
:102B90004002B1FBF5F0584301EB800006EBC000AA
:102BA000B0FBF5F000F00700D6E700000010014090
:102BB0000014014081628285C285002101642222C5
:102BC00080F83E2080F83C100168CA6842F48072A8
:102BD000CA6001684A6942F001024A610068C1683E
:102BE00041F02001C160002070472DE9F041984676
:102BF00017460E460446069D27E0681C25D02DB1D9
:102C0000FEF7D8FDA0EB0800A8421ED920680C30C2
:102C100050E8001F21F4D07140E80012002AF5D1DD
:102C20002068143050E8001F21F0010140E8001234
:102C3000002AF5D1202084F83D0084F83E000020D1
:102C400084F83C000320BDE8F0812068006836EA83
:102C5000000004D00020B842CFD00020F3E70120CC
:102C6000F9E700000148FFF7F9B800005C0A00200E
:102C70000148FFF7F3B80000A00A00200148FFF761
:102C8000EDB80000E40A0020FEE7000070B54FF642
:102C9000FF742346042245A14648FFF785FB6420C4
:102CA00002F0CFFF444945A000F0E4F96421424816
:102CB000FDF76AFB23460D2241A13E48FFF774FB56
:102CC000642002F0BEFF3C4941A000F0D3F964212A
:102CD0003948FDF759FB434D00224FF40071284657
:102CE000FEF763FD234608223FA13248FFF75CFB55
:102CF00041F2883002F0A5FF2F493EA000F0BAF95A
:102D000064212D48FDF740FB002229152846FEF7D7
:102D10004CFD23460A223AA12648FFF745FB4FF413
:102D20007A75284602F08DFF234938A000F0A2F9F9
:102D300064212148FDF728FB2346262237A11D48A0
:102D4000FFF732FB680002F07CFF1B493DA000F05A
:102D500091F964211848FDF717FB414E00224FF40A
:102D600000513046FEF721FD23460E223DA11148B9
:102D7000FFF71AFB284602F064FF0F493DA000F060
:102D800079F964210C48FDF7FFFA23460C223DA196
:102D90000848FFF709FB284602F053FF3046BDE81C
:102DA000704000224FF48041FEF7FFBC41540D0AF1
:102DB00000000000E40A00208C0B002025730000B6
:102DC00041542B43574D4F44453D330D0A000000FD
:102DD000C5E4D6C3B3C941502B535441C4A3CABDA3
:102DE000202573000014024041542B5253540D0A05
:102DF00000000000D6D8C6F4C9FAD0A72025730079
:102E000041542B43494653520D0A0000B2E9D1AF59
:102E1000C9E8B1B8495020257300000041542B4344
:102E2000495053544152543D22544350222C223194
:102E300038332E3233302E34302E3333222C383088
:102E40000D0A0000C9E8D6C3B7FECEF1C6F7495057
:102E5000B5D8D6B7B6CBBFDABAC520257300000007
:102E60000010024041542B4349504D4F44453D31E1
:102E70000D0A0000BFAAC6F4CDB8B4ABC4A3CABD46
:102E80002025730041542B43495053454E440D0AAD
:102E90000000000070B504464FF6FF752B46332244
:102EA00013A12048FFF780FA2B4626221EA11D48B9
:102EB000FFF77AFA2B46162225A11A48FFF774FA73
:102EC0002B46122228A11748FFF76EFA2B4606223E
:102ED0002AA11448FFF768FA2046FDF778FA2B4636
:102EE0002146BDE8704082B20E48FFF75DBA00008F
:102EF000504F5354202F646576696365732F3830C3
:102F0000363136363130352F64617461706F696ED9
:102F100074733F747970653D3520485454502F3197
:102F20002E310A00E40A00206170692D6B65793A40
:102F3000207A39794A626B6F4E456D7A3D3336732C
:102F4000476A6D4A51554E565A6D7A4D3D0A0000FA
:102F5000486F73743A6170692E6865636C6F75644D
:102F6000732E636F6D0A0000436F6E74656E742D6F
:102F70004C656E6774683A390A0A00002C3B487544
:102F80006D2C000070B504464FF6FF752B463322BA
:102F900013A12048FFF708FA2B4626221EA11D4840
:102FA000FFF702FA2B46162225A11A48FFF7FCF973
:102FB0002B46132228A11748FFF7F6F92B460722C4
:102FC0002AA11448FFF7F0F92046FDF700FA2B4636
:102FD0002146BDE8704082B20E48FFF7E5B9000017
:102FE000504F5354202F646576696365732F3830D2
:102FF000363136363130352F64617461706F696EE9
:1030000074733F747970653D3520485454502F31A6
:103010002E310A00E40A00206170692D6B65793A4F
:10302000207A39794A626B6F4E456D7A3D3336733B
:10303000476A6D4A51554E565A6D7A4D3D0A000009
:10304000486F73743A6170692E6865636C6F75645C
:10305000732E636F6D0A0000436F6E74656E742D7E
:103060004C656E6774683A31300A0A002C3B54652F
:103070006D702C000FB4054B10B503A9044A0298DB
:1030800000F044F910BC5DF814FB00003940000862
:10309000DC0000200907090E002804DB00F1E02015
:1030A00080F80014704700F00F0000F1E02080F875
:1030B000141D7047002807D00F4910F0FF0F05D0EE
:1030C000C0B2085C401C70470020704710F47F4F6E
:1030D00004D0C0F30720085C0930704710F47F0F5C
:1030E00004D0C0F30740085C1130704701EB10605A
:1030F0000078193070470000C266000802E008C876
:10310000121F08C1002AFAD170477047002001E061
:1031100001C1121F002AFBD1704700002DE9FF5F9B
:1031200082B00021DDE90430020DDDF840B0034338
:1031300018D044F61050A2F2FF32424315141198F1
:1031400001281FD0A5EB0B00401C5FEA000A4FF0DE
:1031500000064E4FDFF83891B046504615D5CAF1FB
:10316000000413E0119801244AA3012801D16FEA59
:103170000B010298119AC0E90031C0E9024206B081
:10318000BDE8F09FCBF10000DFE704460021404A94
:10319000491842EB0450CDE9001012E0E00707D0D7
:1031A00032463B4640464946FDF71EFB804689466F
:1031B00032463B4610461946FDF716FB06460F46BB
:1031C0006410002CEAD1DDE90401DDE90023BAF145
:1031D000000F06DAFDF708FB42464B46FDF704FBFD
:1031E00005E0FDF7B1F942464B46FDF7ADF904465F
:1031F0000E460022284BFDF73BFA03D84FF0FF3074
:10320000014607E00022254B20463146FDF7F5F840
:10321000FDF75CFB102409E0002C0ADB0A220023E6
:10322000FDF768F8039B30321A55641E50EA01021C
:10323000F2D1641C039AC4F111031444119A012AB7
:1032400003D0012208430DD10AE0084304D0002036
:103250004FF0110B119072E7A3EB0B056D1E0DE003
:103260005B4504DD4FF0000205F1010504E003DADF
:103270004FF00002A5F10105002AECD00298119947
:10328000C0E90231C0E9004579E7000000001440C0
:103290000000F03F300000000000F0430000E03F7D
:1032A000F0B589B004460D461646002100E0491CE1
:1032B000635C202B03D0092B01D0A942F7D3C9B1FD
:1032C000204601F0F9FB0746C7B1002100910191AA
:1032D0000291039104910591069107916A4629464E
:1032E000204601F057FC68B16946B847306009B024
:1032F0000020F0BD09B04FF0FF30F0BD09B04FF035
:10330000FF30F0BD09B04FF0FF30F0BD2DE9FF4FA9
:1033100095B09B468946064600250FE2252877D1C1
:1033200000242746F84A0121059400E0044316F8DA
:10333000013F203B01FA03F01042F7D130782A28F0
:1033400011D06FF02F033078A0F13002092A16D87F
:10335000059A44F0020402EB820203EB420210449D
:10336000761C0590EFE759F8042B0592002A03DA42
:10337000504244F40054059044F00204761C307826
:103380002E2816D116F8010F44F004042A280DD077
:103390006FF02F023078A0F13003092B09D807EB2A
:1033A000870302EB4303C718761CF3E759F8047B45
:1033B000761C30786C280FD006DC4C2817D0682893
:1033C0000DD06A2814D104E0742810D07A280FD1C7
:1033D0000DE044F400140AE044F4801401E044F4E5
:1033E00040147278824202D104F58014761C761C57
:1033F000307866280BD013DC582877D009DC0028F9
:1034000075D04528F6D04628F4D047281AD19DE13A
:1034100018E0632835D0642879D0652812D195E169
:10342000702873D008DC6728F1D069286FD06E2827
:103430000DD06F2806D1B5E073282CD0752875D033
:10344000782874D05A46179990476D1C75E1C4F3DB
:103450000250022809D003280DD0D9F80010042802
:103460000DD00D6009F1040967E1D9F80010EA17E1
:10347000C1E90052F6E7D9F800100D80F2E70D70AF
:10348000F0E719F8041B8DF8001000208DF80100FA
:10349000EA46012003E059F804AB4FF0FF30610722
:1034A0004FF0000102D40DE008F101018846B94255
:1034B0000FDA8045F8DB1AF808100029F4D108E08B
:1034C00008F1010188468142FADB1AF80810002948
:1034D000F6D105985B46A0EB080721463846179AB7
:1034E00000F094FA284400EB080507E04DE029E1DC
:1034F0000DE01AF8010B5A4617999047B8F10108E8
:10350000F7D25B4621463846179A13E142E00A2279
:103510000092C4F302524FF0000A022A08D059F870
:1035200004CB032A4FEAEC710AD00DE029E02AE02F
:1035300009F1070121F00702F2E802C1914609E012
:103540000FFA8CFC4FEAEC71042A03D14FFA8CFC81
:103550004FEAEC71002907DA0A460021DCF1000C81
:1035600061EB02012D2202E0220504D52B228DF809
:103570000420012203E0E20701D02022F7E7904671
:1035800059E00A2102E010220DE010214FF0000A5C
:1035900000910BE010224FF0000A44F004040827C9
:1035A000009203E008224FF0000A0092C4F3025296
:1035B000022A05D059F804CB0021032A08D009E0DB
:1035C00009F1070121F00702F2E802C1914605E086
:1035D0001FFA8CFC042A01D10CF0FF0C4FF00008FC
:1035E000220728D5702806D0009B83F0100353EAE9
:1035F0000A0305D00EE040228DF80420012208E0E5
:103600005CEA010206D030228DF804208DF8050016
:1036100002229046009B83F0080353EA0A030AD172
:103620005CEA010201D1620705D530228DF8042041
:103630004FF001087F1E582804D034A003900EA834
:1036400002900DE036A0F9E753466046009AFCF779
:1036500051FE84460398825C0298401E02900270DC
:103660005CEA0100F0D1029806A9081A00F1200ACC
:10367000600702D524F4803400E00127574502DDBD
:10368000A7EB0A0000E0002000EB0A01009005987B
:103690004144401A0590E00306D45B462146179A40
:1036A000059800F0B3F90544002706E001A85A4642
:1036B000C05D179990476D1C7F1C4745F6DBE00302
:1036C0000CD55B462146179A059800F09FF90544F2
:1036D00004E030205A46179990476D1C0099481E07
:1036E00000900029F5DC08E0029802995A4600781B
:1036F000491C0291179990476D1CBAF10001AAF17B
:10370000010AF1DC65E100000928010030313233A3
:10371000343536373839616263646566000000000D
:1037200030313233343536373839414243444546F7
:103730000000000000F058F90544761C307800289D
:103740007FF4ECAD19B02846BDE8F08F620700D4D5
:10375000062709F1070222F0070CFCE80223E146E4
:1037600003F000485FEA080C02D00FF2702C0DE065
:103770005FEA045C02D50FF2682C07E05FEAC47CC4
:1037800002D00FF2602C01E0AFF2700C4FF0FF3866
:1037900023F00043CDF850C065280CD006DC452846
:1037A00009D046281DD047283DD13DE0662818D0D5
:1037B00067287ED138E00021112F01DB112000E0C5
:1037C000781CCDE9000106A90EA8FFF7A7FCDDE9EA
:1037D0000F010E9A03910021009207F1010A049152
:1037E0004DE04FF000400097CDE9011006A90EA86A
:1037F000FFF794FCDDE90F0203920E9B1199002262
:10380000DDF80CA00093049211B9791C00EB010AB9
:10381000B7EB0A0004D4C0F1FF3007F1010A0490AD
:10382000AAEB0700019044E0012F00DA01270021F4
:10383000112F01DD112000E03846CDE9000106A975
:103840000EA8FFF76BFCDDE90F010E9A0391002132
:1038500004910092BA4621070CD40399514500DA2D
:103860008A46BAF1010F05DD009AAAF10101515C07
:10387000302908D0B84202DA10F1040F06DA01212B
:10388000CDE9011015E0AAF10101E9E7002805DC06
:10389000049901440491AAEB000102E0411C514546
:1038A00000DD8A460499401A401C01904FF0004008
:1038B0000290200704D40198504501DBCDF8048024
:1038C00000208DF84F0002980DF14F07B0F1004F26
:1038D00025D02B200E9002984FF0020800280CDA19
:1038E000404202902D200E9007E00A210298FCF73A
:1038F000D7FE3031029007F8011DB8F10001A8F1A0
:103900000108F2DC02980028EFD1791E0E980870A9
:10391000307800F0200040F0450007F8020D12A8B2
:10392000C01B00F107081498007800B1012000EBDB
:103930000A01019801EBE07105984144401A401ECC
:103940000590E00306D45B462146179A059800F0DF
:103950005DF805441498007818B15A4617999047B5
:103960006D1CE00324D55B462146179A059800F0AC
:103970004DF805441CE00498002807DBDDE903014D
:10398000884203DD0098405C179901E017993020C8
:103990005A469047049805F10105401C049001988F
:1039A000401E019004D12E205A46179990476D1C55
:1039B000BAF10001AAF1010ADDDC05E017F8010BFC
:1039C0005A46179990476D1CB8F10001A8F10108FB
:1039D000F4DC5B462146179A0598ABE62D00000003
:1039E0002B000000200000002DE9F04104460025D6
:1039F0001E461746880404D405E039462020B04707
:103A00006D1C641EF9D52846BDE8F0812DE9F04112
:103A1000044600251E469046C80301D5302700E025
:103A20002027880404D505E041463846B0476D1C80
:103A3000641EF9D52846BDE8F081000070B582B05B
:103A400011469C46089E099D069B079A044604F170
:103A50001400406000602162C4F824C0A362E262E6
:103A60002321184601F023FDE16AA06A104B0844A7
:103A7000021F616A206A01F027FCE06184F8366069
:103A800084F835600020A063E5632564206384F832
:103A9000340020676067009001902346054A214664
:103AA00004F1440002F09FFA02B0002070BD000053
:103AB000155B0008575D0008DDF800C02CF0010C14
:103AC00080F809C0C161026200218162436200EB9B
:103AD000C102143252601260491C0129F7DB7047A1
:103AE00070B50446FCF76CFB0546216F09B1204612
:103AF00088472846BDE87040FCF766BB10B51DA09E
:103B000001F020FC1E4C21781EA001F01BFC207847
:103B100010F0010F02D021A001F014FC207810F069
:103B2000020F02D020A001F00DFC207810F0040F4D
:103B300002D020A001F006FC207810F0080F02D07F
:103B400020A001F0FFFB207810F0100F02D020A081
:103B500001F0F8FB207810F0800F06D01E480168B5
:103B6000BDE810401DA001F0EDBBBDE810401FA056
:103B700001F0E8BB627573206661756C743A0A00E7
:103B800029ED00E05343425F434653525F424653A0
:103B9000523A3078253032582000000049425553BF
:103BA00045525220000000005052454349534552AF
:103BB00052200000494D505245434953455252202E
:103BC00000000000554E53544B4552522000000057
:103BD00053544B455252200038ED00E05343422DE0
:103BE0003E424641523A253038580A000A00000049
:103BF00010B500F03FFB002010BD10B500F01EFC1A
:103C0000002010BD70B51448144C4FF000054169F8
:103C100091F8211011F0020F07D0016941B1802203
:103C20002046FCF7C8FB204670BD25700B4870BDD0
:103C300000F0AEFF20B10AA000682060257105E009
:103C400009A0016821608088A080A57108A10348AF
:103C5000FCF7A5FB014870BDC40000204C4B0020C0
:103C60006D7368200000000066696E7368200000B4
:103C70003E00000001F0E0B90449496991F82120B3
:103C800060F3410281F8212070470000C400002049
:103C9000014A106051607047C400002030B583B005
:103CA00016491748FFF7F4FF7821012001F0E2F8E8
:103CB000144D6861D8B10A201521009101904FF48C
:103CC00080630022104911A001F0F7FE0446002392
:103CD0001A4610A1686901F03BFD0120FFF7CCFFF7
:103CE00014B1204602F000F803B0002030BD0BA054
:103CF00001F028FB03B04FF0FF3030BDDC6A000854
:103D0000346A0008C4000020353D000874736865FB
:103D10006C6C000073687278000000006E6F206D9C
:103D2000656D6F727920666F72207368656C6C0ABE
:103D3000000000009F4E706990F8211041F00101D1
:103D400080F82110FFF75EFF01F0FCFA01274FF029
:103D500002080025FFF78EFF04462000FAD41B2C32
:103D600007D0736993F82000012806D002280CD0F0
:103D700015E0706980F82070ECE75B2C02D083F8C6
:103D800020500CE083F82080E4E783F82050412C99
:103D9000E0D0422CDED0442C46D0432C52D0002C14
:103DA000D8D0FF2CD6D0092C5FD07F2C7CD0082C0B
:103DB0007AD00D2C76D00A2C74D0B3F8720050282B
:103DC00001D3A3F87250B3F87400B3F872108842AC
:103DD00069D20A1A03F1220101442333184401F085
:103DE0004BFB7069B0F8741022300C54706990F875
:103DF000211011F0010F06D0B0F8741022300144E8
:103E00006DA001F09FFA7069B0F87440B0F87200CC
:103E1000A0427DDD69A001F095FA641C7069B0F8DC
:103E20007200A042F6DCB1E0B3F87400002891D033
:103E300062A001F087FA7069B0F87410491EA0F80A
:103E4000741087E7B3F87400B3F87210884281D217
:103E500003F12201415C5AA001F074FA7069B0F8D4
:103E60007410491CA0F8741074E70024B3F87400AF
:103E7000002808DD51A001F065FA641C7069B0F8F3
:103E80007400A042F6DC7069223002F007FB706912
:103E90002230FCF79CFA7169A1F87200A1F8740055
:103EA00058E701E043E064E0B3F8740000283FF411
:103EB00051AFB3F87210491E89B2A3F87210401EB8
:103EC00080B2A3F87400814228D90A1A03F12301B1
:103ED00001442233184401F0CFFA7069B0F872102F
:103EE00022300D547069B0F874102230014435A0AE
:103EF00001F028FA7069B0F87440B0F87200A0427E
:103F0000FFF628AF2DA001F01DFA641C706900E0D7
:103F10003CE0B0F87200A042F4DA1BE72BA001F0FD
:103F200011FA7069B0F8721022300D5412E700F0E7
:103F30002FFE01280ED1706990F8210010F0010FBA
:103F400002D023A001F0FEF97069B0F8721022309F
:103F500000F080FDFFF756FE01F0F4F97069502182
:103F60002230FCF711FA7069A0F87250A0F8745072
:103F7000F0E603F122000C54706990F8210010F073
:103F8000010F03D021460EA001F0DCF97069B0F8F2
:103F90007210491C89B2A0F87210B0F87420521C3B
:103FA000A0F874205029FFF4D5AEA0F87250A0F804
:103FB0007450CFE6C4000020257300000800000004
:103FC0002563000008257320200800000820080051
:103FD0000A0000004FF48068134E144C144F154D26
:103FE0004FF480794FF47A7AFCF78EFD206898B10F
:103FF000012241462846FDF7D8FB306840B12068D1
:1040000030B1386820B1002249462846FDF7CDFB83
:10401000504601F016FEE7E7002241462846FDF72C
:10402000C4FB0122F0E70000200000201C0000205B
:10403000300000200014024013B54FF6FF73012238
:1040400069460548FEF7B0F9034800680168C943AE
:104050004906FBD400981CBD5C0A002010B5124C28
:10406000206810F0020F02D010A001F06BF9206858
:1040700010F0804F0ED01348007808B1FFF73EFDD6
:104080001148007808B100F01FFC1048008808B102
:1040900002F094FA206810F0004F04D0BDE8104000
:1040A0000BA001F04FB910BD2CED00E06661696C0A
:1040B000656420766563746F722066657463680A50
:1040C0000000000029ED00E028ED00E02AED00E00E
:1040D0006465627567206576656E740A000000008D
:1040E00010B502A001F02EF9002010BD48656C6CDF
:1040F0006F2052542D546872656164210A000000DB
:10410000DFF85880164D174E174CDFF860A04FF4BB
:1041100000574FF480794FF47A7B00BFFCF726FDFF
:10412000206898B1012239464046FDF73EFB2868D9
:1041300040B1306830B1206820B100224946504675
:10414000FDF733FB584601F07CFDE7E700223946D6
:104150004046FDF72AFB0122F0E700000010024074
:10416000200000201C00002030000020001402402D
:1041700070B50DA001F0E6F810480468104D2868ED
:1041800084420ED202220FA12068FCF727F920B149
:104190000DA06268216801F0D5F80C3428688442CB
:1041A000F0D3002070BD00002D2D46756E6374693C
:1041B0006F6E204C6973743A0A000000C40000203E
:1041C000C80000205F5F0000252D313673202D2DA3
:1041D0002025730A000000002DE9F04104460D4639
:1041E00016461F46284601F0E7F9001D206025729B
:1041F0006660E76000202061BDE8F0812DE9F041B4
:104200000D46002600212961E968002909D0297A94
:1042100039B12F6840B10446FBF7D2FF014636B1F1
:1042200013E00020BDE8F0813C460126F4E7A4F14C
:104230000C002A7A007A20F08000904205D00846CF
:10424000FBF7C2FF0020BDE8F08100266868246803
:10425000BC4201D1002405E0761C40F8044BEA681A
:10426000B242F4D10846FBF7AFFF2E612046BDE80D
:10427000F081000010B5074C07A0E16801F062F87A
:104280000AA0216901F05EF86169BDE810400CA048
:1042900001F058B84C000020746F74616C206D659B
:1042A0006D6F72793A2025640A00000075736564A9
:1042B000206D656D6F7279203A2025640A00000038
:1042C0006D6178696D756D20616C6C6F636174658B
:1042D00064206D656D6F72793A2025640A000000D4
:1042E0002DE9F04190B000273BA4082302AA022147
:1042F0000AA8FFF771FF4FF008082246414639A08F
:1043000001F020F807243E4801F01CF8641EFAD2A0
:104310003CA001F017F802AE0AA93846FFF76EFF7D
:10432000074600250E98002833DD56F82500A0F139
:104330000C04FBF745FF217A9DF8302021F0800125
:10434000914202D0FBF740FF1FE0FBF73DFF04F175
:104350001400D0F800C0844501D1012000E0002005
:10436000E8B104F1140100200A468C4504D012681B
:10437000401C13688B42FAD1A18B00910190234617
:104380000822414625A000F0DDFF6D1C0E98A842D2
:10439000CBDC002FC0D110B00020BDE8F08104F1CB
:1043A000140000230246844504D012685B1C116887
:1043B0008142FAD1A08B0193009023460822414606
:1043C0001AA000F0BFFF04F1140002F083F80BA064
:1043D00000F0B8FFD9E7000073656D6170686F7217
:1043E00065000000252D2A2E73207620202073756D
:1043F0007370656E64207468726561640A00000001
:1044000068450008202D2D2D202D2D2D2D2D2D2DF5
:104410002D2D2D2D2D2D2D0A00000000252D2A2EAD
:104420002A7320253033642025640A00252D2A2E86
:104430002A7320253033642025643A002DE9F043A7
:10444000ADB0002745A4082320AA012128A8FFF722
:10445000C3FE4FF0080822464146424800F072FF72
:10446000072441A000F06EFF641EFAD23FA000F0C6
:1044700069FF20AE28A93846FFF7C0FE0746002591
:104480002C98002864DD56F82500A0F10C04FBF7F9
:1044900097FE8146207A9DF8A81020F0800088427F
:1044A00003D04846FBF790FE4EE07822214602A852
:1044B000FBF751FF4846FBF787FE94F83500009064
:1044C00023460822414639A000F03CFF94F834000E
:1044D00000F00F01012907D0022909D061B1042998
:1044E0000ED0032910D012E033A000F02BFF0EE015
:1044F00034A000F027FF0AE035A000F023FF06E01B
:1045000036A000F01FFF02E037A000F01BFFA16AF9
:104510008C469CF80000232803D11CF8010F2328A7
:10452000FBD0E26AACEB0100101A64235843B0FBE5
:10453000F2FC236B206C01930090E0696346081A3B
:1045400081182CA000F0FEFE6D1C2C98A8429ADC6D
:10455000002F8FD12DB00020BDE8F0837468726504
:1045600061640000E46700082D000000202D2D2D5F
:1045700020202D2D2D2D2D2D2D202D2D2D2D2D2D92
:104580002D2D2D2D202D2D2D2D2D2D2D2D2D2D2075
:10459000202D2D2D2D2D2D20202D2D2D2D2D2D2D72
:1045A0002D2D2D202D2D2D0A00000000252D2A2E29
:1045B0002A732025336420002072656164792020ED
:1045C000000000002073757370656E6400000000C9
:1045D00020696E69742020200000000020636C6F49
:1045E00073652020000000002072756E6E696E6792
:1045F00000000000203078253038782030782530D1
:1046000038782020202025303264252520202030B5
:10461000782530387820253033640A002DE9F041C0
:1046200090B000272BA4082302AA0A210AA8FFF7AA
:10463000D3FD4FF008082246414628A000F082FE34
:104640000724304800F07EFE641EFAD22EA000F04F
:1046500079FE02AE0AA93846FFF7D0FD07460024CE
:104660000E9800282ADD56F82400A0F10C05FBF76F
:10467000A7FD297A9DF8302021F08001914202D0D7
:10468000FBF7A2FD16E0FBF79FFDA96A686A01919E
:1046900000902B460822414624A000F053FE687A81
:1046A00010F0010F03D027A000F04CFE02E028A07C
:1046B00000F048FE641C0E98A042D4DC002FC9D143
:1046C00001F0AEFB014626A000F03CFE10B0002039
:1046D000BDE8F08174696D6572000000252D2A2EF9
:1046E000732020706572696F64696320202074698B
:1046F0006D656F757420202020202020666C616716
:104700000A00000068450008202D2D2D2D2D2D2D8F
:104710002D2D2D202D2D2D2D2D2D2D2D2D2D202DE3
:104720002D2D2D2D2D2D2D2D2D2D0A00252D2A2E13
:104730002A73203078253038782030782530387842
:10474000200000006163746976617465640A00008A
:1047500064656163746976617465640A00000000D1
:1047600063757272656E74207469636B3A30782574
:104770003038780A00000000FDF756FFFEF71CF8FD
:10478000FDF7D8FEFDF73AFFFDF706FFFEF730F81C
:10479000FDF79EFEFEF748F801223C493C48FDF734
:1047A00051FD012239493B48FDF74CFD01223749B3
:1047B0003948FDF747FDFDF751FEFEF767FAFDF7B3
:1047C0006BFE4FF4C874204601F03BFAFDF764FE1F
:1047D000204601F036FAFDF75FFE204601F031FA7F
:1047E000FDF75AFE204601F02CFAFDF755FE204653
:1047F00001F027FAFDF750FEFDF78CFF234C4FF434
:10480000FA76A06801283CD12448FEF7BBFB234878
:104810000A30FEF73FFB21480A30417800783038F3
:1048200000EB80026FF02F0000EB42020A441B49AC
:104830004B780978303901EB810100EB4100191800
:1048400017A0FEF717FC0A211448FBF79DFD13483B
:1048500000254838DFF85C8040F8525F4FF480470D
:104860004560058139464046FCF797FF304601F028
:10487000E8F939464046FCF790FF304601F0E1F98F
:10488000A560304601F0DDF9BBE700000000002024
:104890005C0A0020A00A0020E40A0020A8010020F1
:1048A000CEC2B6C83A202564200920CAAAB6C83AA2
:1048B000202564000010024010B500F0F9FABDE8B0
:1048C0001040FFF759BF000010B51AA000F03AFDE4
:1048D0001D4C21781DA000F035FD207810F0010F4F
:1048E00002D020A000F02EFD207810F0020F02D0A0
:1048F0001FA000F027FD207810F0080F02D01FA0A5
:1049000000F020FD207810F0100F02D01EA000F063
:1049100019FD207810F0800F06D01E480168BDE810
:1049200010401DA000F00EBDBDE810401EA000F01C
:1049300009BD00006D656D206D616E616765206663
:1049400061756C743A0A000028ED00E05343425F41
:10495000434653525F4D4653523A307825303258D1
:10496000200000004941434356494F4C20000000BD
:104970004441434356494F4C200000004D554E538F
:10498000544B4552522000004D53544B4552522037
:104990000000000034ED00E05343422D3E4D4D41F8
:1049A000523A253038580A000A0000002DE9F04735
:1049B00081460025002699F8000000280ED02048E6
:1049C0000468DFF88080D8F8000084422DD20622E7
:1049D0001DA12068FBF702FD10BB05E0BDE8F04714
:1049E0000021084600F096B82068871D4846FBF76E
:1049F000EEFC024639464846FBF7F0FC80B925B983
:104A00003E463046FBF7E3FC05463946304601F0AA
:104A1000ABFDA84200DA054639460DA000F092FC35
:104A20000C34D8F800008442D1D3002E06D02A4698
:104A300031464846BDE8F04700F092BFBDE8F08738
:104A4000C4000020C80000205F5F636D645F000049
:104A500025730A0038B5054601E06D1C491E21B1D9
:104A600028782028F9D00928F7D031B16A4628469D
:104A7000FEF716FC18B12C4604E0002038BD009863
:104A800038BD641C2078202801D00028F9D10020EE
:104A90002070294602A000F055FC4FF0FF3038BDD1
:104AA00025733A20636F6D6D616E64206E6F7420A4
:104AB000666F756E642E0A002DE9F04781468846C0
:104AC000002610480468104F3868844215D208F157
:104AD000060506220DA12068FBF780FC48B9206876
:104AE0004246801D4946FBF779FC10B92068405DBD
:104AF00030B10C3438688442EBD33046BDE8F087DF
:104B0000A668FAE7C4000020C80000205F5F636D5C
:104B1000645F000070B50FA000F014FC1448046836
:104B2000144D286884420FD2062213A12068FBF797
:104B300055FC28B920686268811D11A000F002FCB4
:104B40000C3428688442EFD310A000F0FBFB002057
:104B500070BD000052542D54687265616420736802
:104B6000656C6C20636F6D6D616E64733A0A000052
:104B7000C4000020C80000205F5F636D645F000018
:104B8000252D313673202D2025730A000A000000E0
:104B90000120704770B5154600230024002950D924
:104BA000002602E00670401C5B1C90F800C0BCF1BF
:104BB000200F02D0BCF1090F01D18B42F2D3082C97
:104BC0000FD321A000F0BEFB002627A055F8261029
:104BD00000F0B8FB761CA642F7D322A000F0B2FB8F
:104BE0002FE08B422DD20278222A03D045F82400F0
:104BF000641C1BE0401C5B1C45F82400641C08E09E
:104C00005C2A04D14278222A01D1401C5B1C401C42
:104C10005B1C0278222A01D08B42F1D38B4210D246
:104C20000670401C5B1C0AE0401C5B1C0278202ABA
:104C300003D0092A01D08B42F6D38B4201D28B429A
:104C4000B3D3204670BD0000546F6F206D616E7944
:104C500020617267732021205765206F6E6C792068
:104C60005573653A0A0000002573200010B4DFF880
:104C700060C04168DCF80020114402F1080388425A
:104C800010D04C8874B9DCF80440A1420AD0DCF89A
:104C900008408C4201D1CCF808004C684460496857
:104CA000841ACC508168114481420FD04C88002C6A
:104CB0000CD1DCF80840844201D1CCF80810D0F8BF
:104CC00004C0C1F804C04068891AC15010BC7047C4
:104CD0004C0000202DE9F04F86B0DDF83CC0109D5F
:104CE000119CA846CDF800C014F0400F02D0DFF8A8
:104CF00048A101E0DFF844A114F0100F01D024F026
:104D0000010414F0010F02D04FF0300901E04FF020
:104D10002009002614F0020F0DD0002A02DA2D26F9
:104D2000524208E014F0040F01D02B2603E014F0E7
:104D3000080F00D020264FF0000C0DF1040B2AB90B
:104D400030224FF0010C8DF804200DE00A2B16D014
:104D500002F00F0712091AF807E067460CF1010C80
:104D60000BF807E0002AF1D1AC4500DD6546009A5A
:104D7000521B14F0110F4FF020070DD01CE0304FE4
:104D8000A7FB02E74FEAD70ECEF1000707EB870734
:104D900002EB47077246DEE716B1002A00DD521E1D
:104DA000131EA2F1010207DD884200D20770401CE9
:104DB000131EA2F10102F7DC26B1884200D2067070
:104DC000521E401C14F0100F0CD1131EA2F1010250
:104DD00008DD884201D280F80090401C131EA2F129
:104DE0000102F6DC6B1E65450FDD3024884200D2DF
:104DF0000470401C1D465B1E6545F7DC05E08842DB
:104E000002D21BF80C300370401CBCF10003ACF163
:104E1000010C02DDB8F1000FF1D1531E002A07DDAD
:104E2000884200D20770401C1A1EA3F10103F7DC70
:104E300006B0BDE8F08F0000D3670008C267000825
:104E4000CDCCCCCC00B583B014200A2100910190C8
:104E50004FF480630022044904A000F02EFE03B04A
:104E60005DF804EB00F040BFB94800086D61696E61
:104E70000000000070B54843044600F075FA05468E
:104E8000280003D02246002100F011FB284670BD07
:104E900070B5054C054DAC4204D220688047241DF6
:104EA000AC42FAD370BD0000206A0008286A0008EE
:104EB00070B5054C054DAC4204D220688047241DD6
:104EC000AC42FAD370BD0000286A0008306A0008BE
:104ED00010B5FBF775F904494A88521C4A80BDE8B1
:104EE0001040FBF771B900009400002010B5FBF7EB
:104EF00067F90B4C6188491E09B2618000290ADC00
:104F000000216180FBF760F96068002807D0BDE8E8
:104F1000104000F099BBBDE81040FBF755B910BD3B
:104F20009400002070B5002834D01B4D29688842B9
:104F300030D3696888422DD2A0F10C044FF0FF31C4
:104F4000164800F042FC608818B12088B0F5F55F83
:104F500008D013A000F0F6F923886288214617A034
:104F600000F0F0F9002060804FF4F5502080A86830
:104F7000844200D2AC6029686068611A401A2969CD
:104F8000081A28612046FFF771FEBDE8704003480B
:104F900000F0EFBB70BD00004C000020E80D0020C9
:104FA000746F2066726565206120626164206461AF
:104FB000746120626C6F636B3A0A00006D656D3A34
:104FC000203078253038782C207573656420666C25
:104FD00061673A2025642C206D6167696320636FE7
:104FE00064653A203078253034780A0000487047EC
:104FF000080F002000487047084B002010B5FCF750
:10500000DFFBFDF739FCFDF70FFBFDF779FCFCF743
:1050100003FD4FF47A71B0FBF1F0FCF709FFFFF7E5
:1050200037FFFFF7E7FF0446FFF7E0FF2146BDE843
:10503000104000F0ABBC000010B54FF0FF34074843
:105040000068016811F0200F02D04068C4B202E08D
:105050000A2000F0F6FDE0B210BD0000084B002071
:10506000F8B5054600240D2000900E49002081F877
:105070003C00284600F06CFC0646300011D0285D4C
:105080000A2805D101231A4669460648FDF78CF91E
:10509000012329191A460348FDF786F9641CB44216
:1050A000EDD3F8BD084B002070B5054605F128008A
:1050B0002C1D31490968002902D08847002859D0A1
:1050C0002EA0216C00F03EF930A0616A00F03AF9A0
:1050D00032A0A16A00F036F934A0E16A00F032F99A
:1050E00036A0216B00F02EF938A0616800F02AF993
:1050F0003AA0A16800F026F93CA0E16800F022F98E
:105100003EA0216900F01EF940A0616900F01AF983
:1051100042A0A16900F016F944A0E16900F012F97B
:1051200046A0216A00F00EF948A0616B00F00AF970
:105130004AA0A16B00F006F94CA0E16B00F002F967
:10514000287810F0040F08D000F0A6FD01464BA00F
:1051500000F0F8F8FFF772F902E050A000F0F2F862
:10516000287810F0100F02D153A000F0EBF8FEF7F2
:1051700075FFFEE770BD0000B40000207073723A46
:10518000203078253038780A000000007230303A3C
:10519000203078253038780A000000007230313A2B
:1051A000203078253038780A000000007230323A1A
:1051B000203078253038780A000000007230333A09
:1051C000203078253038780A000000007230343AF8
:1051D000203078253038780A000000007230353AE7
:1051E000203078253038780A000000007230363AD6
:1051F000203078253038780A000000007230373AC5
:10520000203078253038780A000000007230383AB3
:10521000203078253038780A000000007230393AA2
:10522000203078253038780A000000007231303A9A
:10523000203078253038780A000000007231313A89
:10524000203078253038780A000000007231323A78
:10525000203078253038780A00000000206C723A3F
:10526000203078253038780A000000002070633A3A
:10527000203078253038780A0000000068617264B8
:10528000206661756C74206F6E207468726561644D
:105290003A2025730D0A0D0A00000000686172644F
:1052A000206661756C74206F6E2068616E646C6539
:1052B000720D0A0D0A0000004650552061637469A2
:1052C0007665210D0A00000030B40546101D20F05F
:1052D0000700A0F1440420460022DFF82CC040F86B
:1052E00022C0521C112AFAD3416200218162C1629C
:1052F000016341638363C5634FF0807202640160A0
:10530000204630BC70470000EFBEADDE10B5FAF7A6
:1053100057FF04490A78521C0A70BDE81040FAF79A
:1053200053BF00004800002010B5FAF749FF0449B8
:105330000A78521E0A70BDE81040FAF745BF000017
:10534000480000200FB408B503AB00937F21054847
:10535000029A00F0EFFE0348FFF782FE01B05DF80D
:1053600014FB0000680D00202DE9F047002809D04B
:10537000C01C20F003053E4EF068854205D9002090
:10538000BDE8F0870020BDE8F0870C2D00D20C2589
:105390004FF0FF31374800F018FAD6F808C03168EE
:1053A000ACEB0100F7687B1B83425BD90C18628869
:1053B000002A54D16268121A0C3AAA424FD362688A
:1053C00005F11803121A0C3A4FF001094FF4F55881
:1053D0009A4223D3421902F10C03CA18A2F80080A2
:1053E0004FF0000AA2F802A0D4F804A0C2F804A06A
:1053F00090606360A4F80290506807F10C0290423C
:1054000002D001F1080283503069324628440C3042
:105410003061536983420DD250610BE0A4F80290D1
:105420006068621A801A326910443061726982427F
:1054300000D27061A4F80080644503D008E04068A1
:105440000844B060B068428812B172689042F6D1E8
:10545000084800F08EF904F10C00BDE8F0876068A0
:105460008342A3D8034800F084F90020BDE8F08708
:105470004C000020E80D00200346184681420DD262
:1054800001EB020C9C4509D99918521E05D31CF852
:10549000013D01F8013D521EF9D27047521EFCD366
:1054A00011F801CB03F801CB521EF9D27047034625
:1054B00001F0FF0C042A1CD310F0030F19D1014690
:1054C0004CEA0C2343EA0343102A0AD341F8043B75
:1054D00041F8043B41F8043B41F8043B103A102AE0
:1054E000F4D2042A04D341F8043B121F042AFAD24E
:1054F0000B46511E05D30CF0FF0203F8012B491E89
:10550000FBD270472DE9F04106460F46304600F0C9
:1055100053F80546E868FFF727FF0446E4B1002189
:105520002046EA68FFF7C3FF267200206072082257
:105530003946204600F014FAFAF742FE291D04F11C
:105540000C020B685A600B6813600A605160FAF72E
:105550003BFE2046BDE8F0810020BDE8F08110B59B
:10556000044600202072FAF72BFE04F10C010B68B0
:105570004A685A604B680A681A6049600960FAF71D
:1055800023FE2046BDE81040FFF7CCBC10B5044612
:1055900000202072FAF714FE014604F10C000368A3
:1055A00042685A60436802681A6040600060BDE863
:1055B00010400846FAF708BE0021074A02EB011323
:1055C0001B78834202D102EB01107047491C03296A
:1055D000F4DB002070470000640000202DE9F0415A
:1055E00005460E4617463046FFF7E6FF0446FFF72E
:1055F0006FFC6068211D884202D000688842FCD19F
:10560000FFF774FC46F080002872082239462846CD
:1056100000F0A6F9FAF7D4FD0246201D05F10C01B1
:105620000368596003680B6001604860BDE8F041A1
:105630001046FAF7C9BD007A10F0800F01D00120A2
:10564000704700207047000070B5FAF7B9FD0546B5
:10565000134C6088A8B9A068FDF72CFD421E1148C4
:1056600050F83200A0F114016368994209D0227009
:1056700061600D48007848B11C3103F11C00FAF755
:10568000A6FD2846BDE87040FAF79EBD1C3103F127
:105690001C00FAF79CFD2846BDE87040FAF794BD5F
:1056A00094000020080E00204800002010B5044699
:1056B000FAF786FD024694F8340020F00F0040F01F
:1056C000010084F8340094F835000A4901EBC00168
:1056D00004F114004B6818604B6843604860016037
:1056E0000548A16B836819438160BDE810401046EE
:1056F000FAF76ABD080E00209400002010B5044699
:10570000FAF75EFD024604F114010B684868586020
:105710004B68086818604960096094F835000A49C8
:1057200001EBC0000168814201D1012000E00020AE
:1057300028B10648A16B836823EA01018160BDE8B6
:1057400010401046FAF740BD080E002094000020DB
:1057500070B5044615461E460A4602212046FFF74C
:105760003DFF04F1140149600960A58366720020C1
:1057700070BD70B504460025FAF722FD064604F117
:1057800014000168814201D1012000E0002038B1FD
:10579000A08B4FF6FF7188420DD2401CA08304E01D
:1057A000A1F1140000F054FA01253046FAF70CFD7F
:1057B000012D06D007E03046FAF706FD6FF0020033
:1057C00070BDFFF741FF002070BD2DE9F341074692
:1057D000FAF7F6FC0646B88B28B1401EB88330466F
:1057E000FAF7F2FC58E0019870B100F055FA05465E
:1057F0000020286307F114047F7A284600F089FA14
:1058000057B1012F33D110E03046FAF7DDFC6FF0CD
:10581000010002B0BDE8F08105F114006168086084
:10582000616841606060046021E02168A14214D099
:1058300095F83520A1F1140090F835309A4209D23C
:10584000143005F1140243681A60436853604260E3
:10585000106002E00968A142ECD1A14207D105F134
:1058600014006168086061684160606004600198CC
:10587000002809DD01AA002105F1440000F066FBC3
:1058800005F1440000F0C4FB3046FAF79DFCFFF739
:10589000DBFE286B0028BCD102B00020BDE8F081FF
:1058A00008B509A0FFF74EFD0AA0FFF74BFD12A0B7
:1058B000009005230122032112A0FFF743FDBDE85C
:1058C000084018A0FFF73EBD0A205C207C202F0A6C
:1058D000000000002D205254202D20202020205494
:1058E0006872656164204F7065726174696E6720CB
:1058F00053797374656D0A00446563203331203237
:1059000030323100202F207C205C202020202025D8
:10591000642E25642E2564206275696C64202573CD
:105920000A0000002032303036202D203230323054
:1059300020436F707972696768742062792072748D
:105940002D746872656164207465616D0A000000E1
:10595000014600E0491C0A78002AFBD1081A70476A
:10596000002A09D0034611F801CB03F801CBBCF1A2
:10597000000F02D0521EF6D17047511EFCD00022FB
:1059800003F8012B491EFBD17047000010B50A46F1
:10599000C11C21F0030122F00303182B22D9A3F12B
:1059A000180C8C451ED3124C581A1838E060216030
:1059B0004FF4F5530B8000F10C024A600020886020
:1059C000488048680844606003800121418042604B
:1059D00082600023012207A10848FFF7B9FE206872
:1059E000A06010BD0146BDE8104005A0FFF7AABCAD
:1059F0004C0000206865617000000000E80D002088
:105A00006D656D20696E69742C206572726F7220ED
:105A1000626567696E2061646472657373203078B3
:105A200025782C20616E6420656E64206164647248
:105A300065737320307825780A0000000B4B4FF017
:105A4000000CA3F802C00020094A02EBC001496023
:105A50000960401C2028F8DB1F201870C3F804C020
:105A6000C3F808C0034840600060704794000020FD
:105A7000080E0020A000002010B5074CA068FDF71C
:105A800019FB401E054951F8300014386060BDE82C
:105A900010401C30FAF7E1BB94000020080E0020F3
:105AA0000020044A02EBC00149600960401C002844
:105AB000F8D07047AC00002070472DE9F04784B063
:105AC00080460D9D0C9C894692461E46414601200B
:105AD000FFF718FD0746380011D03046FFF744FCA9
